:040000000DEF00F010
:0400080066EF13F09C
:06001800FF00C5EF14F02B
:10250000002628000000000000000000000000007D
:10251000000000000000000000682900000000002A
:102520001CEC15F00009D8B498EF12F09AEF12F0F5
:10253000A2EF12F0030E0D6E0201979B5FEC14F0F8
:10254000EAEF12F027EC15F00009D8B4AAEF12F068
:10255000ACEF12F0BEEF12F0FBEC14F00009D8B4AF
:10256000B4EF12F0B6EF12F0BEEF12F0010E0D6EE6
:1025700002019799A1EC14F0EAEF12F006EC15F0C5
:102580000009D8B4C6EF12F0C8EF12F0D8EF12F07D
:10259000FBEC14F00009D8B4D0EF12F0D2EF12F037
:1025A000D8EF12F0020E0D6E02019799BAEF12F0F9
:1025B00011EC15F00009D8B4E0EF12F0E2EF12F0E0
:1025C000E8EF12F0030E0D6E0201979DEAEF12F094
:1025D000020197990D50D8B4F0EF12F0F2EF12F01B
:1025E000FFEF12F002D8FFEF12F00500FA6E17505D
:1025F000FD6E1850FE6E1950FF6EFA501200120058
:10260000000EBE6E000EBF6E300EC06E000EC16EAC
:10261000000EC26EC668C768CF0EC86EC9680F0EBE
:10262000CA6E040100690869CF0E106F1869070EA1
:10263000206F000E016F000E096F000E116F000E6B
:10264000196F000E216F000E0201896F000E886F56
:10265000000E876F000E866F000E0401026F000EE1
:102660000A6F300E126F000E1A6F000E226F036990
:102670000B6913691B69070E236F04690C691469E0
:102680001C690F0E246F150E0201716F370E166F45
:10269000140E706F380E156F000E0401056F000EDA
:1026A000066F000E076F000E0D6F000E0E6F000E0E
:1026B0000F6F000E156F000E166F000E176F000ED5
:1026C000256F000E266F000E276F12006100E8F3E1
:1026D0001BF56100ECF31CF59EAE71EF13F073EF88
:1026E00013F07CEF13F0AEAE78EF13F07AEF13F047
:1026F0007CEF13F09DEC15F0A5A681EF13F083EFAE
:1027000013F08EEF13F0B5A688EF13F08AEF13F0F5
:102710008EEF13F090EC12F0C4EF13F0A5A093EF3E
:1027200013F095EF13F0A0EF13F0B5A09AEF13F0AC
:102730009CEF13F0A0EF13F0EFEC14F0C4EF13F0E4
:10274000A5A4A5EF13F0A7EF13F0B2EF13F0B5A413
:10275000ACEF13F0AEEF13F0B2EF13F0CBEC13F0DD
:10276000C4EF13F0A5A2B7EF13F0B9EF13F0C4EF65
:1027700013F0B5A2BEEF13F0C0EF13F0C4EF13F0E7
:10278000E3EC14F0C4EF13F0610070F4FBF46100AB
:102790006CF4FAF4110002019BA5D1EF13F0D3EF12
:1027A00013F0DEEF13F09AA5D8EF13F0DAEF13F081
:1027B000DEEF13F07AEC14F012EF14F09BAFE3EFBE
:1027C00013F0E5EF13F000EF14F09AAFEAEF13F017
:1027D000ECEF13F000EF14F00C50D8B4F2EF13F05C
:1027E000F4EF13F0FCEF13F0000E0C6E9A919A9F29
:1027F0008EEC14F012EF14F0A1EC14F0DAEF13F0F9
:102800009BA305EF14F007EF14F012EF14F09AA356
:102810000CEF14F00EEF14F012EF14F097EC15F02B
:1028200002019A931200040E0201946F800E956FBC
:10283000080E966F030E9C6F000E9A6F000E9B6F32
:10284000000E976F000E8D6F510E866F32EC15F0F3
:1028500002019B919B95948F00F000F000F000F036
:1028600000F000F002019A919A959B853C0E1D6E36
:102870002B0E1E6E000E1F6EB4EC14F01200D69AD2
:10288000AF90D680000E1D6E000E1E6E000E1F6EE5
:1028900067EC15F0B490D682000E1D6E000E1E6E11
:1028A000000E1F6E60EC15F0B890D684000E1D6E01
:1028B000000E1E6E000E1F6E59EC15F012008DEC0E
:1028C00015F083EC15F046EC15F088EC15F00201DC
:1028D000949F3CEC15F002019B919B95948F00F026
:1028E00000F000F000F000F000F002019A919A95DB
:1028F0009B851200000E016E000E036E0268000E32
:10290000046E000E056E000E086E000E096E8DEC52
:1029100015F083EC15F088EC15F012000A500B103E
:10292000D8B495EF14F097EF14F09AEF14F00A5022
:102930007EEC15F0D880023474EC15F094EC15F0B0
:10294000120097EC15F09AEC15F00009D8B4ABEF33
:1029500014F0ADEF14F0B3EF14F0000E7EEC15F0B0
:10296000000E79EC15F012001D501E101F10D8B487
:10297000BCEF14F0BEEF14F0C4EF14F01DC517F552
:102980001EC518F51FC519F5120001EE01F1190E4B
:10299000EE6AE806FDE10401080E5D6F000E5E6F51
:1029A000000E5F6F00016EEF15F0620E0001AD6F5B
:1029B000000EAF6F000EB36F020EB16F000EB06F5E
:1029C000000EAC6F1200610010F4D9F4610014F431
:1029D000DAF4044A052ADF5079EC15F0120091EC84
:1029E00015F0610020F4D9F4610024F4DAF4DF6E0C
:1029F000084A092A1200020195BB01EF15F004EF05
:102A000015F0010E05EF15F0000E1200020198B747
:102A10000CEF15F00FEF15F0010E10EF15F0000E92
:102A20001200020197BD17EF15F01AEF15F0010E15
:102A30001BEF15F0000E1200020197BB22EF15F0FC
:102A400025EF15F0010E26EF15F0000E1200020121
:102A500098A72DEF15F030EF15F0010E31EF15F0BE
:102A6000000E1200A584A586A580A58202019B8583
:102A70009B839B8F97811200A584A586A580A58244
:102A800002019B859B839B8F97811200A594A5963D
:102A9000A590A592000E02019B6F000E976F120089
:102AA000D5EC14F000EC13F013EC14F03FEC14F040
:102AB00012001DC50EF51EC50FF51FC510F512003D
:102AC0001DC511F51EC512F51FC513F512001DC554
:102AD00014F51EC515F51FC516F5120050EC15F0BE
:102AE00070EF15F00DEF00F01A6E610068F48FF2D0
:102AF00012001A6E610068F48CF212001A6E610006
:102B000068F48DF212000201979B979D979912002D
:102B1000000E0201996F99851200000E02019A6F52
:102B2000120002018B5112000201948B120002016B
:0E2B3000949D120002018D511200120012003D
:020000040020DA
:10000000FF0FFF0FFF0FFF0FFF0FFF0FFF0FFF0F80
:10001000FF0FFF0FFF0FFF0FFF0FFF0FFF0FFF0F70
:10002000FF0FFF0FFF0FFF0FFF0FFF0FFF0FFF0F60
:10003000FF0FFF0FFF0FFF0FFF0FFF0FFF0FFF0F50
:020000040030CA
:0A000000FFFFF7FF9FFFFFFFFFFF68
:00000001FF
